{
  "_format": "hh-sol-artifact-1",
  "contractName": "Staker",
  "sourceName": "contracts/Staker.sol",
  "abi": [
    {
      "inputs": [
        {
          "internalType": "address",
          "name": "exampleExternalContractAddress",
          "type": "address"
        }
      ],
      "stateMutability": "nonpayable",
      "type": "constructor"
    },
    {
      "anonymous": false,
      "inputs": [
        {
          "indexed": true,
          "internalType": "address",
          "name": "sender",
          "type": "address"
        },
        {
          "indexed": false,
          "internalType": "uint256",
          "name": "amount",
          "type": "uint256"
        }
      ],
      "name": "Execute",
      "type": "event"
    },
    {
      "anonymous": false,
      "inputs": [
        {
          "indexed": false,
          "internalType": "address",
          "name": "",
          "type": "address"
        },
        {
          "indexed": false,
          "internalType": "uint256",
          "name": "",
          "type": "uint256"
        }
      ],
      "name": "Received",
      "type": "event"
    },
    {
      "anonymous": false,
      "inputs": [
        {
          "indexed": true,
          "internalType": "address",
          "name": "sender",
          "type": "address"
        },
        {
          "indexed": false,
          "internalType": "uint256",
          "name": "amount",
          "type": "uint256"
        }
      ],
      "name": "Stake",
      "type": "event"
    },
    {
      "inputs": [
        {
          "internalType": "address",
          "name": "",
          "type": "address"
        }
      ],
      "name": "balances",
      "outputs": [
        {
          "internalType": "uint256",
          "name": "",
          "type": "uint256"
        }
      ],
      "stateMutability": "view",
      "type": "function"
    },
    {
      "inputs": [],
      "name": "claimDeadline",
      "outputs": [
        {
          "internalType": "uint256",
          "name": "",
          "type": "uint256"
        }
      ],
      "stateMutability": "view",
      "type": "function"
    },
    {
      "inputs": [],
      "name": "claimPeriodLeft",
      "outputs": [
        {
          "internalType": "uint256",
          "name": "claimPeriodLeft",
          "type": "uint256"
        }
      ],
      "stateMutability": "view",
      "type": "function"
    },
    {
      "inputs": [],
      "name": "currentBlock",
      "outputs": [
        {
          "internalType": "uint256",
          "name": "",
          "type": "uint256"
        }
      ],
      "stateMutability": "view",
      "type": "function"
    },
    {
      "inputs": [
        {
          "internalType": "address",
          "name": "",
          "type": "address"
        }
      ],
      "name": "depositTimestamps",
      "outputs": [
        {
          "internalType": "uint256",
          "name": "",
          "type": "uint256"
        }
      ],
      "stateMutability": "view",
      "type": "function"
    },
    {
      "inputs": [],
      "name": "exampleExternalContract",
      "outputs": [
        {
          "internalType": "contract ExampleExternalContract",
          "name": "",
          "type": "address"
        }
      ],
      "stateMutability": "view",
      "type": "function"
    },
    {
      "inputs": [],
      "name": "execute",
      "outputs": [],
      "stateMutability": "nonpayable",
      "type": "function"
    },
    {
      "inputs": [],
      "name": "killTime",
      "outputs": [],
      "stateMutability": "nonpayable",
      "type": "function"
    },
    {
      "inputs": [],
      "name": "rewardRatePerSecond",
      "outputs": [
        {
          "internalType": "uint256",
          "name": "",
          "type": "uint256"
        }
      ],
      "stateMutability": "view",
      "type": "function"
    },
    {
      "inputs": [],
      "name": "stake",
      "outputs": [],
      "stateMutability": "payable",
      "type": "function"
    },
    {
      "inputs": [],
      "name": "withdraw",
      "outputs": [],
      "stateMutability": "nonpayable",
      "type": "function"
    },
    {
      "inputs": [],
      "name": "withdrawalDeadline",
      "outputs": [
        {
          "internalType": "uint256",
          "name": "",
          "type": "uint256"
        }
      ],
      "stateMutability": "view",
      "type": "function"
    },
    {
      "inputs": [],
      "name": "withdrawalTimeLeft",
      "outputs": [
        {
          "internalType": "uint256",
          "name": "withdrawalTimeLeft",
          "type": "uint256"
        }
      ],
      "stateMutability": "view",
      "type": "function"
    },
    {
      "stateMutability": "payable",
      "type": "receive"
    }
  ],
  "bytecode": "0x608060405261000f4260786100a3565b60035561001d4260f06100a3565b600455600060055534801561003157600080fd5b50604051610b0a380380610b0a83398101604081905261005091610075565b600080546001600160a01b0319166001600160a01b03929092169190911790556100c7565b600060208284031215610086578081fd5b81516001600160a01b038116811461009c578182fd5b9392505050565b600082198211156100c257634e487b7160e01b81526011600452602481fd5b500190565b610a34806100d66000396000f3fe6080604052600436106100c65760003560e01c80635d773b2c1161007f578063bcb8e81311610059578063bcb8e8131461022a578063be31069714610240578063e12ed13c14610256578063f78941761461026c57600080fd5b80635d773b2c146101c157806361461954146101dd5780639f75f227146101f257600080fd5b8063240be9441461010a57806324a5a2ce1461014a57806327e235e31461015f5780633a4b66f11461018c5780633ba86c44146101965780633ccfd60b146101ac57600080fd5b3661010557604080513381523460208201527f88a5966d370b9919b20f3e2c13ff65706f196a4e32cc2c12bf57088f88525874910160405180910390a1005b600080fd5b34801561011657600080fd5b5061013761012536600461084e565b60026020526000908152604090205481565b6040519081526020015b60405180910390f35b34801561015657600080fd5b50610137610281565b34801561016b57600080fd5b5061013761017a36600461084e565b60016020526000908152604090205481565b6101946102a5565b005b3480156101a257600080fd5b5061013760045481565b3480156101b857600080fd5b506101946103d4565b3480156101cd57600080fd5b5061013767016345785d8a000081565b3480156101e957600080fd5b506101946106ac565b3480156101fe57600080fd5b50600054610212906001600160a01b031681565b6040516001600160a01b039091168152602001610141565b34801561023657600080fd5b5061019442600555565b34801561024c57600080fd5b5061013760035481565b34801561026257600080fd5b5061013760055481565b34801561027857600080fd5b5061013761082f565b600060045442106102925750600090565b426004546102a091906109d1565b905090565b6000806102b061082f565b905081156102e45780156102df5760405162461bcd60e51b81526004016102d690610956565b60405180910390fd5b610304565b600081116103045760405162461bcd60e51b81526004016102d69061089c565b60008061030f610281565b9050811561033a5780156103355760405162461bcd60e51b81526004016102d6906108de565b61035a565b6000811161035a5760405162461bcd60e51b81526004016102d69061091f565b3360009081526001602052604090205461037590349061099a565b336000818152600160209081526040808320949094556002905282902042905590517febedb8b3c678666e7f36970bc8f57abf6d8fa2e828c0da91ea5b75bf68ed101a906103c69034815260200190565b60405180910390a250505050565b600160006103e061082f565b9050811561040b5780156104065760405162461bcd60e51b81526004016102d690610956565b61042b565b6000811161042b5760405162461bcd60e51b81526004016102d69061089c565b600080610436610281565b9050811561046157801561045c5760405162461bcd60e51b81526004016102d6906108de565b610481565b600081116104815760405162461bcd60e51b81526004016102d69061091f565b60008060009054906101000a90046001600160a01b03166001600160a01b0316639d9a7fe96040518163ffffffff1660e01b815260040160206040518083038186803b1580156104d057600080fd5b505afa1580156104e4573d6000803e3d6000fd5b505050506040513d601f19601f82011682018060405250810190610508919061087c565b905080156105535760405162461bcd60e51b81526020600482015260186024820152775374616b6520616c726561647920636f6d706c657465642160401b60448201526064016102d6565b336000908152600160205260409020546105af5760405162461bcd60e51b815260206004820181905260248201527f596f752068617665206e6f2062616c616e636520746f2077697468647261772160448201526064016102d6565b33600090815260016020908152604080832054600290925282205490919067016345785d8a0000906105e190426109d1565b6105eb91906109b2565b6105f5908361099a565b33600081815260016020526040808220829055519293509182919084908381818185875af1925050503d806000811461064a576040519150601f19603f3d011682016040523d82523d6000602084013e61064f565b606091505b5091509150816106a15760405162461bcd60e51b815260206004820152601a60248201527f5249503b207769746864726177616c206661696c6564203a282000000000000060448201526064016102d6565b505050505050505050565b600160006106b8610281565b905081156106e35780156106de5760405162461bcd60e51b81526004016102d6906108de565b610703565b600081116107035760405162461bcd60e51b81526004016102d69061091f565b60008060009054906101000a90046001600160a01b03166001600160a01b0316639d9a7fe96040518163ffffffff1660e01b815260040160206040518083038186803b15801561075257600080fd5b505afa158015610766573d6000803e3d6000fd5b505050506040513d601f19601f8201168201806040525081019061078a919061087c565b905080156107d55760405162461bcd60e51b81526020600482015260186024820152775374616b6520616c726561647920636f6d706c657465642160401b60448201526064016102d6565b600080546040805163522e117760e01b8152905147936001600160a01b039093169263522e11779247926004808301939282900301818588803b15801561081b57600080fd5b505af11580156106a1573d6000803e3d6000fd5b600060035442106108405750600090565b426003546102a091906109d1565b60006020828403121561085f578081fd5b81356001600160a01b0381168114610875578182fd5b9392505050565b60006020828403121561088d578081fd5b81518015158114610875578182fd5b60208082526022908201527f5769746864726177616c20706572696f6420686173206265656e207265616368604082015261195960f21b606082015260800190565b60208082526021908201527f436c61696d20646561646c696e65206973206e6f7420726561636865642079656040820152601d60fa1b606082015260800190565b6020808252601f908201527f436c61696d20646561646c696e6520686173206265656e207265616368656400604082015260600190565b60208082526024908201527f5769746864726177616c20706572696f64206973206e6f742072656163686564604082015263081e595d60e21b606082015260800190565b600082198211156109ad576109ad6109e8565b500190565b60008160001904831182151516156109cc576109cc6109e8565b500290565b6000828210156109e3576109e36109e8565b500390565b634e487b7160e01b600052601160045260246000fdfea2646970667358221220881f6ba264f6136feabee655edb73be751c14e68d860966662601eccfebc588764736f6c63430008040033",
  "linkReferences": {},
  "deployedLinkReferences": {}
}